S0190000524E47434E545F415652313238444134382E737265636B
S11300000C9476000C9495000C9495000C94950037
S11300100C9495000C9495000C9495000C94950008
S11300200C9495000C9495000C9495000C949500F8
S11300300C9495000C9495000C9495000C949500E8
S11300400C9495000C9495000C9495000C949500D8
S11300500C9495000C9495000C9495000C949500C8
S11300600C9495000C9495000C9495000C949500B8
S11300700C9495000C949A000C9495000C949500A3
S11300800C9495000C9495000C9495000C94950098
S11300900C9495000C9495000C9495000C94950088
S11300A00C9495000C9495000C9495000C94950078
S11300B00C9495000C9495000C9495000C94950068
S11300C00C9495000C9495000C9495000C94950058
S11300D00C9495000C9495000C9495000C94950048
S11300E00C9495000C9495000C94950011241FBE5B
S11300F0CFEFCDBFDFE7DEBF10E4A0E0B0E4E8E778
S1130100FBE000E00BBF02C007900D92A63BB107D5
S1130110D9F720E4A6EBB0E401C01D92AE3BB207D0
S1130120E1F70E94FE000C94BA050C9400000E94B2
S11301304C0208951F920F920FB60F9211248F93C1
S113014080EC8BB9569A81E08093B7408F910F90E1
S11301500FBE0F901F9018957894E7E5F4E0808126
S1130160887F826080830895F894E7E5F4E08081D5
S1130170887F8083089522E630E43F932F937F9312
S11301806F932CE930E43F932F9327EA30E43F93B5
S11301902F931F928F938EE090E49F938F930E94EE
S11301A0C2028DB79EB70C968DBF9EBF089582B1D3
S11301B09EB126B123FB222720F91F922F9393FB94
S11301C0992790F91F929F9383FB882780F91F92A8
S11301D08F938FE190E49F938F930E94C2022FE349
S11301E08DE093E0215080409040E1F700C0000092
S11301F08DB79EB708968DBF9EBF08950E94970045
S11302002FE38DE093E0215080409040E1F700C05F
S113021000004F9A2FE38DE093E0215080409040FE
S1130220E1F700C000002FE38DE093E0215080400F
S11302309040E1F700C00000139B02C0099804C07D
S113024089E290E40E94D6022FE38DE093E02150EE
S113025080409040E1F700C000008FE290E40E94EB
S1130260D60260E970E481E00E94BB00479803E88D
S113027010E4CCE5D0E46894FF24F2F88091B64011
S1130280823061F028F4882349F0813091F0F8CF6E
S1130290843021F040F18530F1F1F2CF9091B740F4
S11302A0913061F78F5F8093B64082E08093B740CE
S11302B0E5CF0E94B40080E990E49F938F93DF938D
S11302C0CF930E94C2020E94D700B80182E00E942C
S11302D0BB000E94AC0082E08093B6400F900F9068
S11302E00F900F90CBCF0E94B4001F930F93DF9316
S11302F0CF930E94C2020E94D70067E770E483E0B4
S11303000E94BB000E94AC00F092B6400F900F9088
S11303100F900F90B3CF0E94B40087E790E49F93AF
S11303208F93DF93CF930E94C2020E94D70060E9AB
S113033070E481E00E94BB000E94AC001092B640C1
S11303400F900F900F900F9099CF1092890080E03A
S11303500895E0ECF1E081E08183828383839EEE63
S1130360938793E0928724E5218733E4308720E163
S1130370278765E0668784875CEC538B928B40E427
S1130380418B308B278B668B848B538F928F418F5D
S1130390308F278F968F848F808380E0089543E089
S11303A068ED81E690E00E948E0280E008957894E2
S11303B080E00895E0E1F4E0808188608193E83191
S11303C084E0F807C9F7E0E3F4E080818860819372
S11303D0E83384E0F807C9F7E0E5F4E08081886059
S11303E08193E83584E0F807C9F7E0E7F4E0808119
S11303F088608193E83784E0F807C9F7E0E9F4E01E
S1130400808188608193E83984E0F807C9F7E0EBDC
S1130410F4E0808188608193E83B84E0F807C9F7C1
S1130420E0EDF4E0808188608193E83D84E0F807A2
S1130430C9F708954198E1E5F4E08081877F8083DE
S1130440409A48980E94A5020895249A2C98E0EEB8
S1130450F5E08781846087830E9495020895019A5C
S1130460099A039A0B984298E2E5F4E08081886047
S11304708083639A6B98A298E2EBF4E080818860B1
S11304808083239A2B980298E2E1F4E080818860CB
S113049080830E94A90108950E94DA01469A4E9829
S11304A0479A4F98E7E5F4E08081886080838081F3
S11304B08F7780838081887F826080830E94CF01D0
S11304C00E941A020E946F020E9493020E94D701A6
S11304D00E94A5010E9425020E942F020895E0E0D7
S11304E0F2E082E4808B87E4828B84EA838B80E170
S11304F0848B82E1858B84E1868B84E080A384A352
S113050080A781E082A787E081A385E085A386E0B8
S113051081A783E08093430280E008951BBEFC0121
S113052064BF4083089580E00895E0E2FBE08FEF2C
S11305309FE0848795871286138686E1818381E014
S1130540848383E0808380E00895E0E2F8E081EA38
S113055091E08087918780EC868380E090E48093AB
S1130560BA409093BB4080E00895E0E2F8E09481C3
S113057095FFFDCF8093220808950E94B50280E084
S113058090E00895CF93DF93CDB7DEB7AE014B5F14
S11305905F4FFA0161917191AF018091BA409091DE
S11305A0BB400E940603DF91CF9108950F931F93E0
S11305B0CF93DF93E091BA40F091BB40238121FFB8
S11305C01BC08C01D0E0C0E0F80181918F016091E3
S11305D0BA407091BB40DB011896ED91FC911997DC
S11305E0882331F00995892B79F3DFEFCFEFECCF36
S11305F08AE00995892B19F08FEF9FEF02C08D2FA8
S11306009C2FDF91CF911F910F9108952F923F92CC
S11306104F925F926F927F928F929F92AF92BF920E
S1130620CF92DF92EF92FF920F931F93CF93DF93BA
S1130630CDB7DEB72B97CDBFDEBF6C017B018A013E
S1130640FC0116821782838181FFCCC1CE01019601
S11306503C01F6019381F70193FD859193FF81910C
S11306607F01882309F4BAC1853239F493FD859159
S113067093FF81917F01853229F4B60190E00E94B5
S11306802005E7CF912C212C312CFFE1F315D8F074
S11306908B3279F038F4803279F08332A1F4232D4F
S11306A020611DC08D3261F0803369F4232D2160F7
S11306B016C0832D8260382EE32DE4603E2E2AC0BE
S11306C0F32DF8601DC037FC2DC020ED280F2A3013
S11306D040F08E32B9F436FC81C1232D2064322ED1
S11306E019C036FE06C08AE0989E200D1124922E71
S11306F011C0EAE02E9E200D1124222EF32DF0626B
S11307003F2E08C08C3621F4832D8068382E02C019
S1130710883641F4F70193FD859193FF81917F0120
S11307208111B3CF982F9F7D9554933028F40C5F9B
S11307301F4F9FE399830DC0833631F0833771F0E7
S1130740833509F059C021C0F801808189830E5F87
S11307501F4F88248394912C530113C02801F2E085
S11307604F0E511CF801A080B18036FE03C0692DE4
S113077070E002C06FEF7FEFC5010E9415054C01C8
S11307808201F32DFF773F2E16C0280122E0420E8E
S1130790511CF801A080B18036FE03C0692D70E0C1
S11307A002C06FEF7FEFC5010E940A054C01F32DD3
S11307B0F0683F2E820133FC1BC0822D90E0881626
S11307C09906B0F4B60180E290E00E9420052A94D4
S11307D0F4CFF50137FC859137FE81915F01B601B5
S11307E090E00E94200521102A9421E0821A9108A9
S11307F08114910471F7E8C0843611F0893641F50B
S1130800F80137FE07C060817181828193810C5F9A
S11308101F4F08C060817181072E000C880B990B53
S11308200E5F1F4FF32DFF763F2E97FF09C0909563
S11308308095709561957F4F8F4F9F4FF0683F2E45
S11308402AE030E0A3010E945C05882E861845C08A
S1130850853731F4232D2F7EB22E2AE030E025C0D7
S1130860932D997FB92E8F36C1F018F4883579F01D
S1130870B5C0803719F0883721F0B0C0E92FE061A6
S1130880BE2EB4FE0DC0FB2DF460BF2E09C034FE95
S11308900AC0292F2660B22E06C028E030E005C029
S11308A020E130E002C020E132E0F801B7FE07C0E9
S11308B060817181828193810C5F1F4F06C06081CA
S11308C0718180E090E00E5F1F4FA3010E945C05E0
S11308D0882E8618FB2DFF773F2E36FE0DC0232D64
S11308E02E7FA22E891458F434FE0BC032FC09C0AA
S11308F0832D8E7EA82E05C0B82CA32C03C0B82C43
S113090001C0B92CA4FE0FC0FE01E80DF11D8081C9
S1130910803321F49A2D997EA92E09C0A2FE06C027
S1130920B394B39404C08A2D867809F0B394A3FCDD
S113093011C0A0FE06C0B21488F4280C922C9B1897
S11309400EC0B21460F4B60180E290E00E9420056B
S1130950B394F7CFB21418F42B1802C0982C212C9E
S1130960A4FE10C0B60180E390E00E942005A2FE20
S113097017C0A1FC03C088E790E002C088E590E0BE
S1130980B6010CC08A2D867859F0A1FE02C08BE214
S113099001C080E2A7FC8DE2B60190E00E94200530
S11309A0891438F4B60180E390E00E9420059A94FB
S11309B0F7CF8A94F301E80DF11D8081B60190E030
S11309C00E9420058110F5CF222009F442CEB60101
S11309D080E290E00E9420052A94F6CFF6018681F9
S11309E0978102C08FEF9FEF2B96CDBFDEBFDF91C3
S11309F0CF911F910F91FF90EF90DF90CF90BF9018
S1130A00AF909F908F907F906F905F904F903F90AA
S1130A102F900895FC010590615070400110D8F7A3
S1130A20809590958E0F9F1F0895FC016150704032
S1130A3001900110D8F7809590958E0F9F1F08950F
S1130A400F931F93CF93DF93FB01238121FD03C0F9
S1130A508FEF9FEF2CC022FF16C04681578124815F
S1130A6035814217530744F4A081B1819D012F5F62
S1130A703F4F208331838C93268137812F5F3F4FF3
S1130A802683378314C08B01EC01FB010084F185BC
S1130A90E02D0995892BE1F6D80116968D919C914C
S1130AA01797019616968D939C931797CE01DF9115
S1130AB0CF911F910F910895FA01AA27283051F17F
S1130AC0203181F1E8946F936E7F6E5F7F4F8F4F7B
S1130AD09F4FAF4FB1E03ED0B4E03CD0670F781FDA
S1130AE0891F9A1FA11D680F791F8A1F911DA11DBF
S1130AF06A0F711D811D911DA11D20D009F46894F8
S1130B003F912AE0269F11243019305D3193DEF69F
S1130B10CF010895462F4770405D4193B3E00FD055
S1130B20C9F7F6CF462F4F70405D4A3318F0495D40
S1130B3031FD4052419302D0A9F7EACFB4E0A69523
S1130B409795879577956795BA95C9F70097610545
S1130B50710508959B01AC010A2E0694579547959B
S1130B6037952795BA95C9F7620F731F841F951F90
S10B0B70A01D0895F894FFCFC5
S1130B780000000200000000BD02000000000A2579
S1130B88642E2025732025732025732025730025C2
S1130B98642025642025640A004572726F7200205F
S1130BA82E2E2E2E2E2E2E2E2E2E2E2E2E332D6221
S1130BB869742052696E6720436F756E7465722E6E
S1130BC82E2E2E2E2E2E2E2E2E2E2E000909257375
S1130BD83D006F66207468652052696E6720436F14
S1130BE8756E7465720A005468697264207374615E
S1130BF87465005365636F6E642073746174650073
S1130C08466972737420737461746500546F206448
S1130C186973706C617900507265737320537769D6
S1090C287463682D000056
S9030000FC
